:020000040000FA
:100000000C943A010C946B010C946B010C946B01F1
:100010000C946B010C946B010C946B010C946B01B0
:100020000C946B010C946B010C946B010C946B01A0
:100030000C946B010C946B010C944E0A0C946B01A4
:100040000C946B010C94200A0C946B010C946B01C2
:100050000C946B010C946B010C946B010C94EC08E8
:100060000C946B010C9460090C9436090C946B0190
:100070000C946B010C946B010C946B010C946B0150
:100080000C94F2090C946B010C946B010C946B01B1
:100090000C946B010C946B010C946B010C946B0130
:1000A0000C946B010C946B010C94C4090C946B01BF
:1000B0000C946B010C946B010C946B010C949609DD
:1000C0000C946B010C946B010C946B010C946B0100
:1000D0000C946B010C946B010C946B010C946B01F0
:1000E0000C946B010C9485070C947D020C94750B99
:1000F0000C94C6030C9475020C9457020C943303B1
:100100000C9448020C94E3020C9431020C946F029C
:100110000C9479030C9441030C941F030C94001766
:100120000C9483020C9410030C9450020C94610202
:100130000C9454020C9467020C944C020C948702A9
:100140000C9436020C946B020C945D020C947902B0
:1001500000002100240027002A002D003000330079
:1001600001010000040107010A010000220025002E
:1001700028002B002E003100340002010000050190
:1001800008010B0100000A0B02090C0D0E08070301
:10019000040100000000000000000000000000005A
:1001A000000000000000000000000000000000004F
:1001B000121110000000000000000000000000000C
:1001C00000000000000000000000000020002300EC
:1001D000260029002C002F0032000001000003013E
:1001E00006010901050505050705080808080202BA
:1001F00002020A0A080804040404010101010101C1
:1002000001010303030303030303040707070C0CA3
:100210000C0C0C0C0C0C020202020606060606066A
:1002200006060B0B0B0B0B0B0B0B0102102020080F
:100230000810204010204080020102010804020141
:1002400001020408102040808040201008040201B0
:100250008004020180402010080402010804020109
:100260000102040810204080010204081020408090
:10027000750B001711241FBECFEFD1E2DEBFCDBF3B
:1002800000E00CBF13E0A0E0B2E0E6E8F4E300E039
:100290000BBF02C007900D92AA34B107D9F727E02F
:1002A000AAE4B3E001C01D92AF3FB207E1F711E04D
:1002B000C9E3D1E000E006C021970109802FFE01CB
:1002C0000E940818C833D10780E00807A9F70E94E8
:1002D0000C0C0C94311A0C9400002091EC07309116
:1002E000ED072817390728F48091E907816080938A
:1002F000E90708950F931F93CF93DF931091610344
:10030000812F90E02091EA073091EB0740E08217BF
:10031000930708F063C0412F417000916003011101
:100320004EC0E091EE07F091EF07E80FF91FE68568
:10033000F0E02CEE3FEF442311F024E130E0C091D7
:100340005E03D0915F032C0F3D1FC90163E470E091
:100350000E94F417E617F70760F0C90168E270E041
:100360000E94F4176F5F7F4F81E090E06E177F0768
:1003700010F52C0F3D1FC90163E470E00E94F417D3
:10038000E617F70750F0C90168E270E00E94F41721
:100390006F5F7F4F6E177F0760F42C0F3D1FC90101
:1003A00063E470E00E94F417E617F707E8F44FEFF4
:1003B00015C082E090E090935D0380935C030F5F33
:1003C0000093600380915C0390915D030817190608
:1003D00028F0109260031F5F10936103842FDF9158
:1003E000CF911F910F910895C90168E270E00E94BA
:1003F000F4176F5F7F4F6E177F07C8F283E090E0BE
:10040000DACF282F30E0F901EC57FE4F9491F90133
:10041000E65DFD4F44912C513E4FF901249122237A
:1004200009F435C0992311F191509231F8F4E92F74
:10043000F0E08827E15EFD4F8F4F0C9408185002C2
:100440005402310248024C02360257025D02610238
:1004500067026B026F027502790236027D02830227
:100460008702809180008F7780938000E22FF0E0F8
:10047000EE0FFF1FE659FE4FA591B4918FB7F89488
:10048000EC91611148C040954E234C938FBF089565
:10049000809180008F7DE8CF80918000877FE4CFBE
:1004A00084B58F7784BDE2CF84B58F7DFBCF8091FB
:1004B000B0008F778093B000D9CF8091B0008F7D4E
:1004C000F9CF809190008F7780939000CFCF80916B
:1004D00090008F7DF9CF80919000877FF5CF80913C
:1004E000A0008F778093A000C1CF8091A0008F7D66
:1004F000F9CF8091A000877FF5CF809120018F7781
:1005000080932001B3CF809120018F7DF9CF80911E
:100510002001877FF5CF4E2BB8CFCF93DF9390E0AC
:10052000FC01E65DFD4F24918C519E4FFC018491AE
:100530008823D1F090E0880F991FFC01E05BFE4F0B
:10054000A591B491FC01E659FE4FC591D49161117A
:100550000EC09FB7F8948C91E22FE0958E238C9378
:100560002881E223E8839FBFDF91CF9108958FB761
:10057000F894EC91E22BEC938FBFF6CF3FB7F89451
:100580008091580390915903A0915A03B0915B0355
:1005900026B5A89B05C02F3F19F00196A11DB11DDE
:1005A0003FBFBA2FA92F982F8827BC01CD01620F1A
:1005B000711D811D911D42E0660F771F881F991FD5
:1005C0004A95D1F70895AF92BF92CF92DF92EF9202
:1005D000FF920F931F93CF93DF936C017B018B01ED
:1005E000040F151FEB015E01AE18BF08C017D1073D
:1005F00059F06991D601ED91FC910190F081E02DC7
:10060000C6011995892B79F7C501DF91CF911F910B
:100610000F91FF90EF90DF90CF90BF90AF90089533
:10062000FC01538D448D252F30E0842F90E0821BF8
:10063000930B541710F0CF96089501970895FC017D
:10064000918D828D981761F0A28DAE0FBF2FB11DD5
:100650005D968C91928D9F5F9F73928F90E008952D
:100660008FEF9FEF0895FC01918D828D981731F0E7
:10067000828DE80FF11D858D90E008958FEF9FEF3B
:100680000895FC01918D228D892F90E0805C9F4F11
:10069000821B91098F739927089582E693E00E9447
:1006A000410321E0892B09F420E0822F0895FC0109
:1006B000A48DA80FB92FB11DA35ABF4F2C91848DC3
:1006C00090E001968F739927848FA689B7892C9320
:1006D000A089B1898C91837080648C93938D848D73
:1006E000981306C00288F389E02D80818F7D808376
:1006F0000895EF92FF920F931F93CF93DF93EC0136
:1007000081E0888F9B8D8C8D98131AC0E889F989B8
:10071000808185FF15C09FB7F894EE89FF896083BB
:10072000E889F98980818370806480839FBF81E03C
:1007300090E0DF91CF911F910F91FF90EF9008957E
:10074000F62E0B8D10E00F5F1F4F0F731127E02E59
:100750008C8D8E110CC00FB607FCFACFE889F98991
:10076000808185FFF5CFCE010E945703F1CFEB8D3D
:10077000EC0FFD2FF11DE35AFF4FF0829FB7F89465
:100780000B8FEA89FB8980818062CFCFCF93DF9383
:10079000EC01888D8823B9F0AA89BB89E889F98999
:1007A0008C9185FD03C0808186FD0DC00FB607FCCE
:1007B000F7CF8C9185FFF2CF808185FFEDCFCE0101
:1007C0000E945703E9CFDF91CF910895CF92DF9236
:1007D000EF92FF92CF93DF93EC01603282E07807D3
:1007E000CCF5653B710514F064EB70E0898128E875
:1007F00030E0281B310987FD3395220F331F220F6C
:10080000331F6901330FEE08FF088A8128E532E0C3
:10081000281B310987FD3395220F331F220F331F09
:10082000032E000C440B550B2C193D094E095F0992
:10083000DB0177FF02C0B0E0A0E00E94D11724EBFB
:1008400030E040E050E00E94A717C20ED31EE41E25
:10085000F51EB601E881E03370F5298188E890E063
:10086000821B910927FD9395880F991F880F991F67
:10087000681779077CF02A8188E592E0821B91094C
:1008800027FD9395880F991F880F991F681779077F
:100890000CF4CB010297880F991F4FB7F8942E2FB5
:1008A00030E0F901EE0FFF1FE20FF31FE150FC4FA4
:1008B000928381834FBFDF91CF91FF90EF90DF90C4
:1008C000CF9008958130910581F41092800082E0EC
:1008D000809381001092850010928400B19A8091DB
:1008E0006F00826080936F0008958230910569F4F3
:1008F0001092900082E080939100109295001092E7
:10090000940088BB8093710008958330910569F449
:100910001092A00082E08093A1001092A500109296
:10092000A40089BB809372000895892B61F4109212
:10093000200182E080932101109225011092240170
:100940008ABB809373000895AF92BF92CF92DF92DB
:10095000EF92FF920F931F93CF93DF936B017A0176
:10096000EC01C65BDC4F28813CE0389F8001399F59
:10097000100D1124A0908F04B12C27FF1FC0FB0184
:100980001182108288818F5F888388819801280F67
:10099000311D87FD3A95F6012A153B051CF4888127
:1009A0008C30C4F180819181049680349C4908F494
:1009B00073C0F60180819181049670C0888198018E
:1009C000280F311D87FD3A952A153B05DCF68881F5
:1009D000A801480F511D87FD5A95FA01EE0FFF1F20
:1009E000E40FF51FE150FC4F808186FFCBCF88815B
:1009F000F801E80FF11D87FDFA95CF01EE0FFF1FFB
:100A0000E80FF91FE150FC4F808160E08F730E9476
:100A10000102B8CF808191812881A801420F511D28
:100A200027FD5A959A01FA01EE0FFF1FE20FF31FFF
:100A3000E150FC4F21813281820F931FF701918396
:100A4000808388819801280F311D87FD3A95F9012F
:100A5000EE0FFF1FE20FF31FE150FC4F808186FF76
:100A600022C08881080F111D87FD1A95F801EE0F2D
:100A7000FF1FE00FF11FE150FC4F808161E08F7399
:100A8000DF91CF911F910F91FF90EF90DF90CF906A
:100A9000BF90AF900C94010280E49CE9F701918330
:100AA00080838FEF8883DF91CF911F910F91FF900B
:100AB000EF90DF90CF90BF90AF900895FC019B0125
:100AC00024513109C90163E470E00E94F417E6176C
:100AD000F70758F0C90168E270E00E94F4176F5FF1
:100AE0007F4F81E06E177F0708F480E008952F9212
:100AF0003F924F925F926F927F928F929F92AF92AE
:100B0000BF92CF92DF92EF92FF920F931F93CF93FA
:100B1000DF9300D000D0CDB7DEB7382E7E836D8353
:100B20005A013C832B8348012E2C9A012C5E3F4FA7
:100B3000C90163E470E00E94F4178B01C90168E207
:100B400070E00E94F4179B012F5F3F4F3A83298387
:100B5000ED81FE813E968091EE079091EF07E80FC0
:100B6000F91FFE83ED83412C512C32014394C12C9B
:100B7000D12C76013320A1F1ED81FE81A814B904B6
:100B8000D9F481816B817C8190E00E945E052220F6
:100B900001F1CC0CDD1CEE1CFF1C882311F06894C5
:100BA000C0F8440C551C661C771C3A948D819E81BC
:100BB00002969E838D83DECF208130E0201731079F
:100BC00030F081E049815A814217530700F780E0F5
:100BD000DECF882331F3C428D528E628F728E1CFD3
:100BE000C092A707D092A807E092A907F092AA079F
:100BF00081E026960FB6F894DEBF0FBECDBFDF9121
:100C0000CF911F910F91FF90EF90DF90CF90BF9009
:100C1000AF909F908F907F906F905F904F903F909C
:100C20002F900895EF920F931F93FC01862FBA0126
:100C3000EE24E3949785911101C0E12C038514857E
:100C400021853285478150850E9477051F910F913C
:100C5000EF9008950F931F93CF93DF938C01C09172
:100C6000EE07D091EF072F8530E0DC011396ED9170
:100C7000FC917496CF0163E470E00E94F41726178C
:100C80003707A8F0CF0168E270E00E94F4176F5FA9
:100C90007F4F6217730758F0F80165817681888964
:100CA00090E0DF91CF911F910F910C945E0580E051
:100CB000DF91CF911F910F910895FC0101900020C9
:100CC000E9F73197AF01481B590BBC0182E693E06D
:100CD0000C94E3028F929F92AF92BF920F931F9357
:100CE000CF93DF93CDB7DEB7A1970FB6F894DEBFF1
:100CF0000FBECDBF19A2423008F44AE08E010F5D4D
:100D00001F4F842E912CB12CA12CA50194010E947F
:100D10008517E62FB901CA01EA30F4F4E05DD80185
:100D2000EE938D01232B242B252B79F790E080E087
:100D3000109719F0CD010E945D06A1960FB6F894A8
:100D4000DEBF0FBECDBFDF91CF911F910F91BF903E
:100D5000AF909F908F900895E95CE1CFA0E9B4E057
:100D600011968C931197282F30E0F901E65DFD4F25
:100D7000E4911496EC931497F901EC51FE4FE49131
:100D8000F0E0EE0FFF1FE653FE4F259134911396CE
:100D90003C932E93129760E00C948D0290919807EB
:100DA000882329F061E0911105C02F9A08959923B5
:100DB00021F060E0892F0C9401022F9808954F9242
:100DC0005F926F927F928F929F92AF92BF92CF92DB
:100DD000DF92EF92FF92CF93DF93CDB7DEB72D97DF
:100DE0000FB6F894DEBF0FBECDBF7C010E94BE02DD
:100DF00069837A838B839C834B015C011D86B0E001
:100E0000A0E09701AD0125523109410951092D8317
:100E10003E834F8358879701AD012750310941091F
:100E2000510929873A874B875C87F89461E0809164
:100E30009A070E94010280919D0790919E0782303F
:100E4000910538F0880F991F880F991F0597019712
:100E5000F1F760E080919A070E94010278943D8545
:100E6000311107C08091990781FF03C081E00E9482
:100E7000CE0680919B0790919C07880E991EA11C1D
:100E8000B11CF8940E94BE022B013C016B01498108
:100E90005A81C41AD50AF12CE12C8D819E81AF8133
:100EA000B885C816D906EA06FB063CF0809199077A
:100EB00081FF03C080E00E94CE0629853A854B85DC
:100EC0005C85C216D306E406F506B4F078942D9638
:100ED0000FB6F894DEBF0FBECDBFDF91CF91FF906C
:100EE000EF90DF90CF90BF90AF909F908F907F90CA
:100EF0006F905F904F90089531E03D8748145904FA
:100F00006A047B0408F4BECF90CFCF92DF92EF92B9
:100F1000FF928AE190E090939C0780939B0785E085
:100F200090E090939E0780939D0761E080919A07DF
:100F30000E948D0280E093E20E94DF060E94BE02C2
:100F40006B017C0124E0C21AD108E108F1080E947B
:100F5000BE026C197D098E099F09603C78408105AD
:100F60009105A8F380E392E0FF90EF90DF90CF909F
:100F70000C94DF060F931F93CF93DF93EC018881CE
:100F80009981009759F02A813B812617370730F065
:100F900081E0DF91CF911F910F9108958B016F5FD9
:100FA0007F4F0E943519009759F0998388831B83DE
:100FB0000A832C813D81232B59F7FC011082E8CF55
:100FC00080E0E7CFFF920F931F93CF93DF931F92A1
:100FD0001F92CDB7DEB7FF24F39482E693E00E9420
:100FE0004103892B61F182E693E00E941F038A305E
:100FF00019F4F0925103F1CF89831A82009190077E
:10100000109191070F5F1F4FB8018CE897E00E9485
:10101000BA07882311F320918C0730918D078091B6
:10102000900790919107BE016F5F7F4F820F931FD2
:101030000E942A1A1093910700939007CECF0F9029
:101040000F90DF91CF911F910F91FF9008950E9413
:101050004D0381110E94E20780E090E0892B49F066
:1010600080E090E0892B29F00E94000081110E940D
:10107000000080E090E0892B49F080E090E0892B2F
:1010800029F00E94000081110E94000080E090E0A1
:10109000892B49F080E090E0892B29F00E94000024
:1010A00081110C9400000895CF93DF93EC018881A7
:1010B0009981009711F00E94AC18198218821D8244
:1010C0001C821B821A82DF91CF910895EF92FF92CA
:1010D0000F931F93CF93DF93EC017B018A01BA0139
:1010E0000E94BA0781110BC0CE010E945408CE01A4
:1010F000DF91CF911F910F91FF90EF9008951D8385
:101100000C83B701888199810E942A1AF0CFFB01D4
:1011100001900020E9F73197AF01461B570B0C9463
:101120006608CF92DF92EF92FF920F931F93CF93B7
:10113000DF93EC016B017A014617570720F48D2DE0
:101140006A01E62EF82E198218821B821A821D82ED
:101150001C8250E040E064E173E0CE010E9466082A
:101160000091900710919107C016D10600F5E01686
:10117000F10608F48701E0918C07F0918D07E00FEC
:10118000F11FF080108260918C0770918D076C0DBB
:101190007D1DCE0161157105A1F00E948708809127
:1011A0008C0790918D07080F191FF801F082CE016E
:1011B000DF91CF911F910F91FF90EF90DF90CF9033
:1011C00008950E945408EBCFFC0180819181009723
:1011D00011F00C94AC1808951F920F920FB60F9255
:1011E00011242F933F938F939F93AF93BF9380913D
:1011F000540390915503A0915603B0915703309139
:10120000530323E0230F2D3758F50196A11DB11D7F
:10121000209353038093540390935503A093560354
:10122000B09357038091580390915903A0915A03AA
:10123000B0915B030196A11DB11D8093580390935B
:101240005903A0935A03B0935B03BF91AF919F9151
:101250008F913F912F910F900FBE0F901F90189577
:1012600026E8230F0296A11DB11DD2CF1F920F9227
:101270000FB60F9211240BB60F922F933F934F93FB
:101280005F936F937F938F939F93AF93BF93EF93EE
:10129000FF9382E693E00E945703FF91EF91BF9185
:1012A000AF919F918F917F916F915F914F913F91FE
:1012B0002F910F900BBE0F900FBE0F901F9018959F
:1012C0001F920F920FB60F9211240BB60F922F930D
:1012D0008F939F93EF93FF93E0917203F0917303C9
:1012E0008081E0917803F091790382FD1DC09081A7
:1012F00080917B038F5F8F7320917C03821741F075
:10130000E0917B03F0E0EE59FC4F958F80937B03D7
:10131000FF91EF919F918F912F910F900BBE0F90A6
:101320000FBE0F901F9018958081F2CF1F920F92E1
:101330000FB60F9211240BB60F922F933F934F933A
:101340005F936F937F938F939F93AF93BF93EF932D
:10135000FF9348E251E064E271E090E080E00E9497
:10136000A404FF91EF91BF91AF919F918F917F91D5
:101370006F915F914F913F912F910F900BBE0F9006
:101380000FBE0F901F9018951F920F920FB60F92DD
:1013900011240BB60F922F933F934F935F936F934C
:1013A0007F938F939F93AF93BF93EF93FF9348EAFD
:1013B00050E064EA70E083E090E00E94A404FF91B2
:1013C000EF91BF91AF919F918F917F916F915F91BD
:1013D0004F913F912F910F900BBE0F900FBE0F902A
:1013E0001F9018951F920F920FB60F9211240BB6F3
:1013F0000F922F933F934F935F936F937F938F93AE
:101400009F93AF93BF93EF93FF9348E950E064E954
:1014100070E082E090E00E94A404FF91EF91BF9100
:10142000AF919F918F917F916F915F914F913F917C
:101430002F910F900BBE0F900FBE0F901F9018951D
:101440001F920F920FB60F9211240BB60F922F938B
:101450003F934F935F936F937F938F939F93AF933C
:10146000BF93EF93FF9348E850E064E870E081E0B9
:1014700090E00E94A404FF91EF91BF91AF919F91E2
:101480008F917F916F915F914F913F912F910F902D
:101490000BBE0F900FBE0F901F9018951F920F92CA
:1014A0000FB60F9211240BB60F922F933F934F93C9
:1014B0005F936F937F938F939F93AF93BF93CF93DC
:1014C000EF93FF93E0919204F0919304C081809197
:1014D0009404C8238091950490919604019649F054
:1014E0008091950490919604019690939604809330
:1014F000950480919004811120C0C11189C0809110
:10150000950490919604813A910590F01092990477
:10151000809195049091960490939D0480939C04EF
:1015200081E090E090939B0480939A0480939004D0
:1015300010929604109295046BC0809190048130B3
:10154000C1F4CC2309F464C0209195043091960431
:1015500080919A0490919B04AC014F5F5F4F509330
:101560009B0440939A0480579B4FFC01268782E09E
:10157000DDCF80919004823009F067C0C11127C08F
:1015800080919A0490919B048E3EF2E09F0770F048
:1015900081E08093990483E080939004E091970424
:1015A000F0919804309721F21995C2CF20919504BB
:1015B00030919604AC014F5F5F4F50939B04409372
:1015C0009A0480579B4FFC01268781E0AFCF809122
:1015D000950490919604813A9105D0F080919C04F5
:1015E00090919D049093ED078093EC0780919A046D
:1015F00090919B049093EB078093EA0783E080939C
:101600009004E0919704F0919804309709F01995AF
:101610008091990780FF05C081E0C11180E00E94A0
:10162000CE06FF91EF91CF91BF91AF919F918F9196
:101630007F916F915F914F913F912F910F900BBED2
:101640000F900FBE0F901F901895809190048330DB
:10165000F9F6C111DDCF6CCFDF92EF92FF920F93BD
:101660001F93CF93DF93EC01D62E8A017901F0E02E
:1016700090E080E030E0E0E0DE01AE0FB11D2C91A3
:10168000FF5F222339F0320F2E9F800D911D112410
:101690001C92F0E03323B9F0DE1611F0F23098F02E
:1016A000232F2695820F911D632F70E00E94F4175F
:1016B000DE01A60FB11D3C93D8013C9131110FC042
:1016C0006C9390E080E0EF5FDE16B0F681E0DF9192
:1016D000CF911F910F91FF90EF90DF900895D70168
:1016E0003C91332369F380E0F2CF109265031092AE
:1016F000640388EE93E0A0E0B0E0809366039093EB
:101700006703A0936803B09369038AEF92E0909314
:1017100063038093620385EC90E090936F03809362
:101720006E0384EC90E0909371038093700380ECDF
:1017300090E0909373038093720381EC90E0909318
:1017400075038093740382EC90E090937703809309
:10175000760386EC90E0909379038093780310925F
:101760007B0310927C0310927D0310927E0380E92C
:1017700094E09093EF078093EE0780E00E94AE061E
:101780001092980710929A0780918F048033E0F5A9
:1017900091E0980F90938F048093950790E0FC015F
:1017A000EE0FFF1FE80FF91FE150FC4F88EB9BE0A5
:1017B0009283818380918F04803350F591E0980F5C
:1017C00090938F048093920790E0FC01EE0FFF1F2F
:1017D000E80FF91FE150FC4F88EB9BE09283818377
:1017E00010928D0710928C0710928F0710928E071F
:1017F000109291071092900750E040E064E173E08E
:101800008CE897E00C9466088FEF80939507D2CF11
:101810008FEF80939207E4CFCF93DF93CDB7DEB7FE
:10182000C55DD1090FB6F894DEBF0FBECDBF789469
:1018300084B5826084BD84B5816084BD85B58260D5
:1018400085BD85B5816085BD80916E008160809386
:101850006E001092810080918100826080938100EF
:1018600080918100816080938100809180008160FF
:10187000809380008091B10084608093B10080915A
:10188000B00081608093B00080919100826080936D
:1018900091008091910081608093910080919000EF
:1018A0008160809390008091A10082608093A1006C
:1018B0008091A10081608093A1008091A00081604F
:1018C0008093A0008091210182608093210180910A
:1018D00021018160809321018091200181608093AA
:1018E000200180917A00846080937A0080917A0050
:1018F000826080937A0080917A00816080937A0080
:1019000080917A00806880937A001092C100E09103
:101910007203F091730312E01083E0916E03F09173
:101920006F031082E0917003F091710380E1808376
:1019300010927A03E0917603F091770386E080833A
:10194000E0917403F0917503808180618083E09160
:101950007403F0917503808188608083E091740343
:10196000F0917503808180688083E0917403F09129
:10197000750380818F7D80838DE00E94AE0610927A
:1019800098071093B0001093B10084E68093B300E1
:101990008093B4001092B20080919004833011F4CF
:1019A0001092900484E080937000809195078033BA
:1019B00008F043C061E086E30E948D0280919507A4
:1019C000282F30E0F901EE0FFF1FE20FF31FE15067
:1019D000FC4F9081907C96639083109296071092B2
:1019E00097072CE0622F0E94E81790E0829FB001D9
:1019F000112430E020E0AB01420F531FFA01EE0F3B
:101A0000FF1FE40FF51FE150FC4F408146FD07C06A
:101A10002F5F3F4F2C30310571F70E946204E09137
:101A200095078E2F90E0FC01EE0FFF1FE80FF91FC6
:101A3000E150FC4F808180648083809192078033E5
:101A400008F043C061E087E30E948D028091920715
:101A5000282F30E0F901EE0FFF1FE20FF31FE150D6
:101A6000FC4F9081907C9763908310929307109223
:101A700094072CE0622F0E94E81790E0829FB0014B
:101A8000112430E020E0AB01420F531FFA01EE0FAA
:101A9000FF1FE40FF51FE150FC4F408146FD07C0DA
:101AA0002F5F3F4F2C30310571F70E946204E091A7
:101AB00092078E2F90E0FC01EE0FFF1FE80FF91F39
:101AC000E150FC4F8081806480836091500370E01E
:101AD00085E997E00E94E60360914F0370E082E998
:101AE00097E00E94E60368EC70E08CE897E00E94C3
:101AF000BA079E012F5F3F4F690150E2252E312C1E
:101B000080919004833011F00C94A5158091990474
:101B1000882309F45BC080E48093E9071092A00752
:101B200010929F071092A4071092A3071092A20789
:101B30001092A1071092A7071092A8071092A90768
:101B40001092AA071092E8071092E7078091E90720
:101B500086FD7BC12091EA073091EB07C9018F7B9D
:101B6000049709F0C0C0E091EE07F091EF07878578
:101B700086588C3508F0B7C080892430310509F0CB
:101B80004CC08152883108F0AEC0818988508830BD
:101B900008F0A9C081E08093E9078091F207909155
:101BA000F3079093A2078093A1078091F607909185
:101BB000F7079093A4078093A3078091F007909173
:101BC000F1079093A00780939F0723C11092E90724
:101BD00080919F079091A0079093F1078093F00761
:101BE0008091A3079091A407B0E0A0E08093F6074E
:101BF0009093F707A093F807B093F9078091A10796
:101C00009091A207B0E0A0E08093F2079093F307D1
:101C1000A093F407B093F50781CF82548F3208F078
:101C200062C043E050E060E28CED92E00E94120658
:101C3000882309F458C08091A7079091A807409184
:101C4000A9075091AA07242F30E03093A4072093CE
:101C5000A3079C012E3E67E8360711F583E090E06C
:101C60009093A00780939F07852F90E09093A20701
:101C70008093A1073092E8072092E7078AE795E072
:101C80000E946D018091E90780FFC3C029E030E028
:101C90003093A00720939F0780628093E907B9C023
:101CA0009095891310C090E09093A2078093A107AC
:101CB000852F809548130CC088E090E09093A00792
:101CC00080939F07D7CF3093A2072093A107F0CF2F
:101CD0008AE090E09093A00780939F074093A3072A
:101CE0005093A407C7CF8091EA079091EB07843601
:101CF000910509F0B3C088EC92E00E942A0688237F
:101D000009F4ACC043E050E060E188EC92E00E944E
:101D10001206882309F4A2C0F090A707AF2CB09058
:101D2000A8070BE010E082E0A81680E2B806F1F008
:101D30000EE010E09AEAA9169AE5B906B9F00DE0AE
:101D400010E0A4E5AA16A2E3BA0681F00FE010E0C5
:101D5000E3E0AE16E1E0BE0649F000E110E0F3E298
:101D6000AF16FBECBF0611F00CE010E043E250E0D0
:101D700060E288EC92E00E941206882309F46EC0AB
:101D8000FB248091A7079091A807A091A907B09183
:101D9000AA079C0144E0369527954A95E1F73093D0
:101DA000A2072093A1072A2F30E03093A4072093A5
:101DB000A307382F3A2739272F2D22952F702F254B
:101DC0002F70482F4F70241719F024E02093E90753
:101DD0000C30110549F42091E90720612093E907AF
:101DE000B092A607A092A5073B1729F08091E907BA
:101DF00084608093E90780E390E09093E807809304
:101E0000E7071093A00700939F078AE397E00E94DB
:101E10006D018091A3079091A40799278C319105BA
:101E200009F47EC708F02DC78D30910509F461C70C
:101E300008F013C78830910509F46DC78930910502
:101E400009F455C7079709F450C785E193E00E944C
:101E50005D0682E193E00E945D0635C78091EA0746
:101E60009091EB07809709F06FC041E050E06FE080
:101E700084EB92E00E941206882309F465C0E09189
:101E8000EE07F091EF0785A58450853008F05CC01F
:101E90008091A7079091A807A091A907B091AA07E0
:101EA0009C012F7133273093A2072093A10715E0DF
:101EB000B695A795979587951A95D1F7492F4370B1
:101EC0009C0133273093A4072093A3072091EC07AC
:101ED0003091ED072536344080F52091FA072F5FC9
:101EE0002093FA07223018F021E02093E90790FFB1
:101EF00014C02091E907322F32603093E907309106
:101F0000F6075091F7078095831719F02660209304
:101F1000E9073093A3075093A4074150423088F457
:101F200087E190E09093A00780939F078FE090E077
:101F30009093E8078093E7076CCF1092FA0742303E
:101F400079F384E090E0EECF80E092E00E942A06F0
:101F5000882309F447C06091EA077091EB076A3162
:101F6000710531F06A32710519F060327105D1F5F1
:101F7000615071097695679543E050E080E092E00A
:101F80000E941206882371F18091A7079091A807FB
:101F9000A091A907B091AA079C012F77332730930E
:101FA000A4072093A307E7E0B695A7959795879593
:101FB000EA95D1F79093A2078093A1078091EA0751
:101FC0009091EB070197969587959093E8078093FA
:101FD000E70788E190E09093A00780939F0780EE49
:101FE00091E015CF81E08093610389E793E09093BE
:101FF0005F0380935E03109260030E947A01813038
:1020000009F063C0812C912C540110E020916103F0
:102010008091EA079091EB0728171906E0F40E94D7
:102020007A01082F0E947A0101110BC0813009F05A
:102030004CC0880C991CAA1CBB1C689480F81F5FBC
:10204000E5CF013009F041C081113FC0880C991CD7
:10205000AA1CBB1CF4CF812F90E09093E8078093DB
:10206000E7078092A7079092A807A092A907B092CD
:10207000AA07882D8F7390E09093A4078093A307FD
:10208000940156E0369527955A95E1F72F7133273D
:102090003093A2072093A107940122273071232BAC
:1020A00031F4805C9F4F9093A4078093A30780E84E
:1020B00093FC88E88093E90781E190E09093A00782
:1020C00080939F078FEC99E0A2CEE091EE07F0910C
:1020D000EF07878588528D3108F045C080898C5084
:1020E0008B3008F040C083E0809361038CEB91E07B
:1020F00090935F0380935E03109260030E947A01C5
:10210000813089F50E947A0181112DC0812C912C9A
:10211000540110E0209161038091EA079091EB0750
:102120002817190608F083C00E947A01F82E133090
:10213000B1F00E947A01082F133021F40E947A0135
:10214000081311C091E0F91268C001110CC0880C8D
:10215000991CAA1CBB1C689480F81F5FDBCF0E94EF
:102160007A01F81631F32091EA073091EB072C330E
:10217000310519F024303105B1F4E091EE07F0910A
:10218000EF078785482F50E04638510560F0433E01
:10219000510508F499C08E5868EB7BE007E010E029
:1021A000823608F495C08091EA079091EB0782325D
:1021B000910509F4F6C0849709F023C188E292E002
:1021C0000E942A06882309F41CC143E050E060E124
:1021D00088E292E00E941206882309F412C18091DD
:1021E000A7079091A807A091A907B091AA07492F26
:1021F0005A2F6B2F77275093A4074093A307992753
:102200009093A2078093A10780E190E09093E80764
:102210008093E70785E090E0D4CCF110A4CF0130A3
:1022200009F0A1CF880C991CAA1CBB1C96CF812F4A
:1022300090E09093E8078093E7078092A707909239
:10224000A807A092A907B092AA07282D30E0892DEF
:1022500090E0133200F540E84093E9073093A4077B
:102260002093A3079093A2078093A107A0FE03C029
:1022700088E88093E907153128F08091E9078061AB
:102280008093E90782E190E09093A00780939F07F5
:1022900083E79AE0BCCD40E94093E9073093A40777
:1022A0002093A3079093A2078093A107C5019F7372
:1022B0009093A6078093A507B7FE03C088E9809393
:1022C000E90783E190E0E0CF68E670E106E010E026
:1022D00080892430310559F48D51863108F063CF5F
:1022E00081898750883008F05ECF81E854CC90E037
:1022F0000E945E05882309F456CF43E050E06CE16C
:1023000084E192E00E941206882309F44CCF80E811
:102310008093E9078090A7079090A807A090A9074D
:10232000B090AA07D501C401F4E0B695A79597959A
:102330008795FA95D1F7AC019093A4078093A307F2
:10234000D501C40124E1B695A795979587952A955F
:10235000D1F79093A2078093A10724E030E090E0AA
:10236000842F8F70980FE4E056954795EA95E1F732
:1023700021503109A9F794012927D501C9018F708E
:102380009927AA27BB27892B8A2B8B2B19F084E846
:102390008093E9071093A00700939F078CE190E0DA
:1023A000C7CD8091EC079091ED078C3E9C4508F0DD
:1023B00030CDE091EE07F091EF07878588508730A8
:1023C00008F027CD87A58850873008F022CD81E01E
:1023D0008093E9078091F2079091F3079093A20709
:1023E0008093A1078091F6079091F7079093A40737
:1023F0008093A30745E050E05093A00740939F07C8
:1024000008CD0091EA071091EB07C8018F7D843455
:10241000910521F00630110509F084C08CE392E0AB
:102420000E942A06882309F47DC006301105B1F404
:1024300081E28093E9078091F2079091F3079093EE
:10244000A2078093A1078091F6079091F7079093D8
:10245000A4078093A30785E190E0B3CB43E050E06D
:1024600060E28CE392E00E941206882309F45AC0CD
:102470008091A7071091A9070091AA079091A8073A
:102480008093A1079093A2072091EA073091EB0770
:102490002436310559F543E450E060E18CE392E0E5
:1024A0000E9412068823F1F18091A7079091A80756
:1024B0000095101731F09095891719F094E09093DA
:1024C000E907982F812F9093A4078093A30780E3B7
:1024D00090E09093E8078093E70786E190E090937F
:1024E000A00780939F078EEB9AE091CC902F909558
:1024F000191312C0212F30E03093A4072093A307B3
:1025000090E09093A2078093A1073092E807209271
:10251000E70784E190E0E3CFC8019093A30780939D
:10252000A407F3CF8091EA079091EB07849781F598
:1025300080E592E00E942A06882351F143E050E0B2
:1025400060E180E592E00E941206882309F1109173
:10255000A7078091A8078095181719F084E0809349
:10256000E9078DE692E00E946D01812F90E0909343
:10257000A4078093A3071092A2071092A10780E1FD
:1025800090E09093E8078093E7078EE190E019CB05
:102590008091EA079091EB0784349105C9F484E6B1
:1025A00092E00E942A06882399F043E050E060E21E
:1025B00084E692E00E941206882351F080E880931E
:1025C000E9073092E8072092E7078DE190E0F9CA29
:1025D00088E792E00E942A062091EA073091EB07F3
:1025E000882309F456C02432310509F052C043E073
:1025F00050E060E188E792E00E941206882309F427
:1026000048C0E091EE07F091EF0781A98250843035
:1026100008F03FC080E88093E9073091A707209138
:10262000A807832F922F422F42954F702F7064E09E
:10263000969587956A95E1F78F703F709FE0942794
:1026400092279827391719F094E89093E907609139
:10265000EC077091ED07683F714128F49091E9070C
:1026600092609093E9074093A1071092A207A0E11E
:102670002A9F90011124282B3093A4072093A307AD
:1026800080E190E09093E8078093E7078BE190E08A
:1026900098CA8CE892E00E942A062091EA073091BD
:1026A000EB07882379F12432310561F543E050E0EE
:1026B00060E18CE892E00E941206882319F1E09113
:1026C000EE07F091EF0781A988508730D8F4809108
:1026D000A7079091A80798279F3FA1F490E09093B7
:1026E000A4078093A30780E190E09093E80780938C
:1026F000E7078AE190E09093A00780939F0788ED19
:1027000094E085CB8091EA079091EB0780379105A3
:1027100009F05AC041E050E068E080EA92E00E948F
:102720001206882309F450C08091A7079091A8074A
:10273000A091A907B091AA07892B8A2B8B2B09F0AE
:1027400043C041E150E06FE180EA92E00E9412064E
:102750008823D1F18090A7079090A807A090A9079F
:10276000B090AA074FE450E061E180EA92E00E9455
:102770001206882349F19091A8078091A90789271B
:10278000982789279093A4078093A3078092A7078F
:102790009092A807A092A907B092AA079092A207C8
:1027A0008092A107B092A607A092A5078CE190E0C5
:1027B0009093A00780939F0788E390E09093E807A9
:1027C0008093E70780E869CA8091EA079091EB0758
:1027D0008231910508F468C128ECF60111922A951E
:1027E000E9F7E091EE07F091EF0743E050E060E099
:1027F00002974817590788F432962785283C08F035
:1028000053C1D601A20FB11D3C913F5F3C936217AB
:1028100008F4622F4E5F5F4FECCFCF52DF4F18822C
:10282000C15DD040C053DF4F1882C05DD0409E01D3
:1028300020533F4FAE014F525F4FC6010E942C0BF9
:10284000882309F431C188ECF60111928A95E9F7E1
:102850004091EA075091EB0742505109E091EE0791
:10286000F091EF0724E030E060E02417350788F4AA
:1028700032968089883C08F017C1D601A80FB11D97
:102880009C919F5F9C93681708F4682F2E5F3F4FC1
:10289000ECCFC153DF4F1882CF5CD040C753DF4F1E
:1028A0001882C95CD0409E0127533F4FAE0141536F
:1028B0005F4FC6010E942C0B882309F4F5C02091BC
:1028C000EA073091EB0736952795C9010197C75361
:1028D000DF4FA880C95CD040A11001979093E80712
:1028E0008093E7079C012150310945E036952795F3
:1028F0004A95E1F7CB52DF4F2883C55DD040C053E6
:10290000DF4F6880C05DD040611003C0AA2009F489
:10291000CBC0C153DF4F2881CF5CD04092E3299FC9
:10292000A0011124CD52DF4F59834883C35DD040AD
:10293000CF52DF4F8880C15DD040899E4001112475
:10294000699E30011124A99E50011124CE52DF4FFF
:102950008883C25DD04023E0422E512CF12CCE5210
:10296000DF4F8881C25DD040813208F080E2C753DA
:10297000DF4F9881C95CD040992309F46FC0E2E031
:10298000F0E0F093A007E0939F07E12C840195010C
:10299000A401B2010E947705882309F485C034E0C0
:1029A000F39EF0011124E954F84F8091A70790910C
:1029B000A807A091A907B091AA0780839183A28359
:1029C000B38340E4440E511CF394CE52DF4F588140
:1029D000C25DD0405052CE52DF4F5883C25DD040CE
:1029E000CB52DF4F6881C55DD0406F1508F0B7CF7F
:1029F00080ED97E00E946D01E091EE07F091EF0706
:102A0000278592E3299F900111243093AC072093EE
:102A1000AB078089899FC00111249093AE078093F2
:102A2000AD079092B4078092B307CD52DF4F8881F3
:102A30009981C35DD0409093B6078093B507611428
:102A4000710449F1A114B104C9F47092B007609205
:102A5000AF079093B2078093B107DBC921E030E064
:102A60003093A00720939F07E12C8401CD52DF4FC4
:102A700028813981C35DD040A3018BCFB092B207CA
:102A8000A092B1079092B0078092AF077092B407FE
:102A90006092B307BEC99092B0078092AF07B09220
:102AA000B207A092B107B5C9A090EA07B090EB07B2
:102AB00096E0A916B10408F4ACC9E091EE07F091D4
:102AC000EF073F9603E010E025EC3DE94CE151E8CB
:102AD0009AE0F92E828191918F9D4001112468E046
:102AE000969FD00111248A169B0668F19F9DB00124
:102AF0001124A8E08A9FC001112499249394681797
:102B0000790710F482E0982E63E971E080E091E0AB
:102B10000E9475179B01AC0129250F5F1F4FA0165E
:102B2000B106C1F62093A7073093A8074093A907E1
:102B30005093AA073092E8072092E7071092A00767
:102B400010929F0766C9912CDFCF809152038111AB
:102B5000C0C00E94E20780915103882309F4B9C0E4
:102B60008091900790919107892B09F46DC0A090F6
:102B70008C07B0908D076CE270E0C5010E941F1AAF
:102B8000009709F461C08C010A191B090F3F100757
:102B900009F45AC0A80170E060E0C6010E949108E3
:102BA00089819A81F12C009719F00E940417F62E62
:102BB000F0925003C6010E94E408409190075091A2
:102BC0009107B8016F5F7F4FC6010E94910889810C
:102BD0009A8110E0009719F00E940417162FC60181
:102BE0000E94E4086F2D653B08F064EB609350038E
:102BF000153B08F014EB10934F0370E085E997E064
:102C00000E94E603612F70E082E997E00E94E603EC
:102C10008DE293E00E945D066091500370E090E0C9
:102C200080E04AE00E946A068BE393E00E945D0622
:102C300060914F0370E090E080E04AE00E946A06F5
:102C400082E193E00E945D0664E173E08CE897E026
:102C50000E948708109251033CC08631910509F407
:102C600048C028F4459709F0F0C888E22AC08831A6
:102C7000910509F446C0499709F0E7C810924E0340
:102C800022C085349105E1F050F48334910559F167
:102C900040F58034910509F0D8C889E112C0873425
:102CA0009105E9F0D0F08235910589F18A359105D9
:102CB00009F0CBC880914F038B5F80934F0303C013
:102CC00085E080934E0380919004833011F410923C
:102CD00090040E9427080C94800D8AE0F2CF8FE0C8
:102CE000F0CF84E1EECF8EE1ECCF83E2EACF8DE24C
:102CF000E8CF60914E0370E085E997E00E94E6031B
:102D0000E2CF809150038B5F80935003DCCF8091A2
:102D100050038550F9CF80914F03855080934F0326
:102D20008091520391E0892780935203C753DF4F6C
:102D300019821882C95CD040C553DF4F19821882AE
:102D4000CB5CD040C353DF4F19821882CD5CD0409A
:102D50004AE0B60190E00E942B17B601CE018753DE
:102D60009F4F0E9487081A8219821C821B821E8232
:102D70001D8249E050E068E073E0C6010E946608E9
:102D8000C753DF4FA880B980C95CD040A114B104FB
:102D900099F1C353DF4F08811981CD5CD0400115F3
:102DA0001105A9F08D819E81080F191FB801C60178
:102DB0000E94BA07882301F129813A818D819E8181
:102DC000B501820F931F0E942A1A1E830D834D8125
:102DD0005E8169817A8182E693E00E94E30282E16A
:102DE00093E00E945D06C6010E94E408CE0187536D
:102DF0009F4F0E94E40829C8C6010E945408E7CFEB
:102E00008CE897E00C94E4081F93FC01992788272D
:102E1000BC01E89411911032E9F3193010F01E3022
:102E2000C8F31B3251F01D3249F4689406C00E9469
:102E30003617610F711D811D911D119110531A30AC
:102E4000B0F33EF490958095709561957F4F8F4FCC
:102E50009F4F1F910895BB274A3031F4992322F4E4
:102E6000BDE2909581959F4F0C944C17592F482F98
:102E7000372F262F660F771F881F991F660F771F22
:102E8000881F991F620F731F841F951F660F771F7E
:102E9000881F991F0895BB27FB015527AA27880F74
:102EA000991FAA1FA41710F0A41B83955051B9F7BE
:102EB000A05DAA3308F0A95DA193009779F7B1113D
:102EC000B1931192CB010C946517DC01FC01672FC3
:102ED00071917723E1F7329704C07C916D937083F1
:102EE0006291AE17BF07C8F30895DB018F939F93DC
:102EF0000E94C617BF91AF91A29F800D911DA39F05
:102F0000900DB29F900D11240895A1E21A2EAA1BD4
:102F1000BB1BFD010DC0AA1FBB1FEE1FFF1FA21789
:102F2000B307E407F50720F0A21BB30BE40BF50B86
:102F3000661F771F881F991F1A9469F7609570950F
:102F4000809590959B01AC01BD01CF010895052EA0
:102F500097FB1EF400940E94BE1757FD07D00E94F5
:102F6000851707FC03D04EF40C94BE17509540957E
:102F7000309521953F4F4F4F5F4F08959095809525
:102F8000709561957F4F8F4F9F4F08950E94D9177D
:102F9000A59F900DB49F900DA49F800D911D1124AD
:102FA0000895B7FF0C94C6170E94C617821B930B97
:102FB0000895A29FB001B39FC001A39F700D811D12
:102FC0001124911DB29F700D811D1124911D089532
:102FD000991B79E004C0991F961708F0961B881F6B
:102FE0007A95C9F780950895AA1BBB1B51E107C0CC
:102FF000AA1FBB1FA617B70710F0A61BB70B881F89
:10300000991F5A95A9F780959095BC01CD01089517
:10301000EE0FFF1F881F8BBF0790F691E02D1994CC
:103020000F931F93CF93DF938230910510F482E0CA
:1030300090E0E091FD07F091FE0730E020E0B0E085
:10304000A0E0309799F42115310509F44AC0281BF6
:10305000390B24303105D8F58A819B8161157105C2
:1030600089F1FB0193838283FE0111C0408151816C
:103070000281138148175907E0F04817590799F45E
:10308000109761F012960C93129713961C93329638
:10309000CF01DF91CF911F910F9108950093FD070C
:1030A0001093FE07F4CF2115310551F04217530755
:1030B00038F0A901DB019A01BD01DF01F801C1CFA0
:1030C000EF01F9CF9093FE078093FD07CDCFFE016E
:1030D000E20FF31F819391932250310939832883A2
:1030E000D7CF2091FB073091FC07232B41F420918F
:1030F000F2023091F3023093FC072093FB072091FA
:10310000F0023091F1022115310541F42DB73EB79F
:103110004091F4025091F502241B350BE091FB071E
:10312000F091FC07E217F307A0F42E1B3F0B2817C2
:10313000390778F0AC014E5F5F4F2417350748F030
:103140004E0F5F1F5093FC074093FB0781939193B1
:103150009FCFF0E0E0E09CCFCF93DF930097E9F0C2
:10316000FC01329713821282A091FD07B091FE07F5
:10317000ED0130E020E01097A1F420813181820F31
:10318000931F2091FB073091FC072817390709F09E
:1031900061C0F093FC07E093FB07DF91CF910895A6
:1031A000EA01CE17DF07E8F54A815B819E014115F0
:1031B0005105B1F7E901FB83EA8349915991C40FA5
:1031C000D51FEC17FD0761F4808191810296840F71
:1031D000951FE90199838883828193819B838A83E8
:1031E000F0E0E0E012968D919C9113970097B9F56D
:1031F0002D913C911197CD010296820F931F209142
:10320000FB073091FC072817390739F6309751F53D
:103210001092FE071092FD07B093FC07A093FB07E6
:10322000BCCFD383C28340815181840F951FC817BF
:10323000D90761F44E5F5F4F88819981480F591F0C
:10324000518340838A819B81938382832115310539
:1032500009F0B0CFF093FE07E093FD079ECFFD018C
:10326000DC01C0CF13821282D7CF4F925F926F9250
:103270007F928F929F92AF92BF92CF92DF92EF9206
:10328000FF920F931F93CF93DF938C01009799F4D4
:10329000CB01DF91CF911F910F91FF90EF90DF90C5
:1032A000CF90BF90AF909F908F907F906F905F90E6
:1032B0004F900C941018FC01E60FF71F9C01225050
:1032C0003109E217F30708F4AEC0D901CD91DC91C2
:1032D0001197C617D70720F1C530D10578F0CE0178
:1032E00004978617970750F0C61BD70B2297C193F8
:1032F000D1936D937C93CF010E94AC18C801DF91EC
:10330000CF911F910F91FF90EF90DF90CF90BF90E2
:10331000AF909F908F907F906F905F904F900895A7
:103320005B01AC1ABD0A4C018C0E9D1EA091FD07DD
:10333000B091FE07512C412CF12CE12C109731F566
:103340008091FB079091FC078815990509F05CC0F6
:103350004616570608F058C08091F0029091F1028D
:10336000009741F48DB79EB74091F4025091F50259
:10337000841B950BE817F90708F055C0F093FC077C
:10338000E093FB07F90171836083B8CF8D919C9125
:10339000119712966C90129713967C901397A8151C
:1033A000B90559F56C0142E0C40ED11CCA14DB0406
:1033B00020F1AC014A195B09DA011296159780F0E9
:1033C0006282738251834083D9016D937C93E114AF
:1033D000F10471F0D7011396FC93EE9312978ECF00
:1033E00022968C0F9D1FF90191838083F301EFCF0B
:1033F000F093FE07E093FD0781CF4816590608F4C5
:103400002C017D01D3019ACFCB010E9410187C01C1
:10341000009749F0AE01B8010E94161AC8010E9437
:10342000AC1887016BCF10E000E068CFFB01DC0136
:1034300002C001900D9241505040D8F70895FC0110
:103440008191861721F08823D9F79927089531971C
:10345000CF010895FB01DC0101900D920020E1F7FE
:10346000089511E0C9E3D1E000E006C0802FFE011D
:103470000E9408182196011DCA33D10780E0080771
:10348000A9F7F894FFCF18002860095802B0045833
:103490000258025802002D0000000600262823686A
:1034A00010F4012C06F4012602806E008507050049
:1034B00026E02070100E022A060E020E02004100C5
:1034C0000000140026801180113002900630023076
:1034D00002006E0000001E002638081C040E022A9E
:1034E000060E020E0200320000001D0026220B22F2
:1034F0000BEE026608EE02EE02806E0000001B007A
:10350000269E0002049E0029029E000701006E0014
:1035100000001A0026F603BC050802BC050802D408
:1035200001004B0000001C00261F015D033E023E0F
:10353000021F015D03A06E00000004002604010CC0
:103540000304011C0704010C03006E0000000C00C2
:1035500025800DC006B0011005B001B00100820049
:10356000000008002600238011300290063002304F
:1035700002006E0085070000FF07800000000000C9
:103580007903E3021003C60341031F0333034952C7
:10359000204D6F64653A20000D0A00556E72656318
:1035A0006F676E697A656420636F6D6D616E642EFE
:1035B0002E2E00506974636820416E676C653A2056
:1035C000002C2059617720416E676C653A2000001D
:020000040003F7
:10E000000D9489F10D94B2F10D94B2F10D94B2F129
:10E010000D94B2F10D94B2F10D94B2F10D94B2F1F0
:10E020000D94B2F10D94B2F10D94B2F10D94B2F1E0
:10E030000D94B2F10D94B2F10D94B2F10D94B2F1D0
:10E040000D94B2F10D94B2F10D94B2F10D94B2F1C0
:10E050000D94B2F10D94B2F10D94B2F10D94B2F1B0
:10E060000D94B2F10D94B2F10D94B2F10D94B2F1A0
:10E070000D94B2F10D94B2F10D94B2F10D94B2F190
:10E080000D94B2F10D94B2F10D94B2F10D94B2F180
:10E090000D94B2F10D94B2F10D94B2F10D94B2F170
:10E0A0000D94B2F10D94B2F10D94B2F10D94B2F160
:10E0B0000D94B2F10D94B2F10D94B2F10D94B2F150
:10E0C0000D94B2F10D94B2F10D94B2F10D94B2F140
:10E0D0000D94B2F10D94B2F10D94B2F10D94B2F130
:10E0E0000D94B2F141546D656761323536300041AF
:10E0F000726475696E6F206578706C6F72657220DE
:10E1000073746B3530305632206279204D4C530099
:10E11000426F6F746C6F616465723E004875683F52
:10E1200000436F6D70696C6564206F6E203D200048
:10E130004350552054797065202020203D20005FF9
:10E140005F4156525F415243485F5F3D2000415658
:10E1500052204C696243205665723D20004743437C
:10E160002056657273696F6E203D20004350552024
:10E1700049442020202020203D20004C6F7720663D
:10E18000757365202020203D20004869676820665F
:10E190007573652020203D200045787420667573D6
:10E1A00065202020203D20004C6F636B2066757336
:10E1B000652020203D20004D617220203720323024
:10E1C000313300312E362E3800342E332E350056A2
:10E1D00023202020414444522020206F7020636F70
:10E1E00064652020202020696E73747275637469E1
:10E1F0006F6E2061646472202020496E74657272B3
:10E20000757074006E6F20766563746F7200726A49
:10E210006D702020006A6D70200057686174207056
:10E220006F72743A00506F7274206E6F7420737541
:10E2300070706F72746564004D7573742062652030
:10E2400061206C6574746572002000577269747483
:10E25000696E672045450052656164696E672045B7
:10E26000450045452065727220636E743D00504F35
:10E27000525400303D5A65726F2061646472003FF1
:10E280003D43505520737461747300403D454550C3
:10E29000524F4D207465737400423D426C696E6B41
:10E2A000204C454400453D44756D70204545505215
:10E2B0004F4D00463D44756D7020464C415348001B
:10E2C000483D48656C70004C3D4C69737420492F83
:10E2D0004F20506F72747300513D51756974005234
:10E2E0003D44756D702052414D00563D73686F7707
:10E2F00020696E7465727275707420566563746FF0
:10E30000727300593D506F727420626C696E6B00BD
:10E310002A0011241FBECFEFD1E2DEBFCDBF01E046
:10E320000CBF12E0A0E0B2E0EEE1FDEF03E00BBFB6
:10E3300002C007900D92A030B107D9F712E0A0E01B
:10E34000B2E001C01D92AE30B107E1F70F9460F367
:10E350000D948DFE01E20EBF0FEF0DBF11241FBE05
:10E360000D9460F30D9400F020E030E040ED57E0B4
:10E3700005C0FA013197F1F72F5F3F4F2817390792
:10E38000C0F308959C01260F311DC901A0E0B0E043
:10E390002F5F3F4FABBFFC018791882361F08093D3
:10E3A000C6008091C00086FFFCCF8091C0008064D1
:10E3B0008093C000EACF08958DE08093C6008091DD
:10E3C000C00086FFFCCF8091C00080648093C000B5
:10E3D0008AE08093C6008091C00086FFFCCF8091C8
:10E3E000C00080648093C00008950F94C2F10F9420
:10E3F000DCF10895FC019081992359F09093C600B7
:10E400008091C00086FFFCCF8091C0008064809323
:10E41000C0003196992379F70895282F982F929567
:10E420009F70892F805D8A3308F0895F8093C600D2
:10E430008091C00086FFFCCF8091C00080648093F3
:10E44000C000822F8F70982F905D9A3308F0995FEB
:10E450009093C6008091C00086FFFCCF8091C000E1
:10E4600080648093C00008959C01FB01853691056E
:10E470001CF46330710594F0C90164E670E00F94F8
:10E480002EFE605D7F4F6093C6008091C00086FFC6
:10E49000FCCF8091C00080648093C0002B30310598
:10E4A00014F43297B4F0C90164E670E00F942EFEC4
:10E4B0006AE070E00F942EFE605D7F4F6093C600AF
:10E4C0008091C00086FFFCCF8091C0008064809363
:10E4D000C000C9016AE070E00F942EFEC0968093E0
:10E4E000C6008091C00086FFFCCF8091C000806490
:10E4F0008093C00008951F93182F8EE692EE60E07F
:10E500000F94C2F11093C6008091C00086FFFCCF2B
:10E510008091C00080648093C0000F94DCF11F9153
:10E5200008952F923F924F925F926F927F928F92B7
:10E530009F92AF92BF92CF92DF92EF92FF920F9392
:10E540001F93DF93CF93CDB7DEB762970FB6F894E2
:10E55000DEBF0FBECDBF382E622ECA01DB015C01CB
:10E560006D01772420E2222E2E010894411C511CBB
:10E570008BC081E0A81680E0B80681E0C80680E084
:10E58000D80628F0C601AA27BB270F940DF2BB2797
:10E59000AD2D9C2D8B2D0F940DF28A2D0F940DF225
:10E5A0002092C6008091C00086FFFCCF8091C00001
:10E5B00080648093C0009DE29093C6008091C0006B
:10E5C00086FFFCCF8091C00080648093C0002092C1
:10E5D000C6008091C00086FFFCCF8091C00080649F
:10E5E0008093C00019828601750188249924A1E0D6
:10E5F0003A1651F03A1620F0B2E03B1661F409C029
:10E600000BBFF701779007C0C7010F9477FE782EF4
:10E6100002C0F7017080872D0F940DF22092C60082
:10E620008091C00086FFFCCF8091C0008064809301
:10E63000C000872D8052F401EF70F0708F3520F408
:10E64000E40DF51D708204C0E40DF51D8EE280839B
:10E650000894E11CF11C011D111D0894811C911CE2
:10E6600090E18916910409F0C2CF80E190E0A0E02A
:10E67000B0E0A80EB91ECA1EDB1E198AC2010F9493
:10E68000FAF10F94DCF16A94662009F072CF629679
:10E690000FB6F894DEBF0FBECDBFCF91DF911F91B3
:10E6A0000F91FF90EF90DF90CF90BF90AF909F9031
:10E6B0008F907F906F905F904F903F902F90089534
:10E6C0002F923F924F925F926F927F928F929F9282
:10E6D000AF92BF92CF92DF92EF92FF920F931F9370
:10E6E000DF93CF93CDB7DEB7CD53D1400FB6F894BB
:10E6F000DEBF0FBECDBF01E20EBF0FEF0DBF94B75F
:10E70000F894A89514BE80916000886180936000A1
:10E7100010926000789493FF05C0E0910002F091A0
:10E7200001021995279A2F9A8091C00082608093E8
:10E73000C00080E18093C40088E18093C1000000A4
:10E74000EE24FF24870144E0A42EB12CCC24DD2448
:10E7500024C0C5010197F1F70894E11CF11C011DCB
:10E76000111D21E2E2162EE4F20620E0020720E06D
:10E77000120718F031E0C32ED12CC801B70127ECE5
:10E780003BE140E050E00F9441FE611571058105C9
:10E79000910519F485B1805885B98091C00087FD35
:10E7A00003C0C114D104A9F2A6014F5F5F4FC25E3E
:10E7B000DE4F59834883CE51D140C25EDE4F8881FF
:10E7C0009981CE51D140019711F00D9410FEC05D9A
:10E7D000DE4F19821882C053D14060E0C15DDE4F28
:10E7E0001882CF52D14088249924C35DDE4F19820C
:10E7F0001882CD52D140C05EDE4F188219821A8233
:10E800001B82C052D140CE5CDE4F188219821A8220
:10E810001B82C253D140EE24FF2487010BBFF701B6
:10E8200007911691C45CDE4F19830883CC53D14005
:10E830000D940BFEC25EDE4F28813981CE51D1404E
:10E840002130310509F52091C600C25EDE4F1982E4
:10E850001882CE51D14022C02F5F3F4F4F4F5F4FA4
:10E86000213082E138078AE7480780E0580780F0C6
:10E87000C45CDE4FE881F981CC53D140EF5FFF4F9C
:10E8800019F0EE27FF27099420E030E040E050E047
:10E890008091C00087FFE0CF2091C600C35DDE4FAE
:10E8A00048815981CD52D1404F5F5F4FC35DDE4FEC
:10E8B00059834883CD52D140213209F063C64A3092
:10E8C000510508F05FC60894811C911C53E0851621
:10E8D000910409F059C600E010E018C081E280936D
:10E8E000C6008091C00086FFFCCF8091C00080648C
:10E8F0008093C0002F5F3F4F2931310579F70F9486
:10E90000DCF10F5F1F4F0530110519F020E030E0FA
:10E91000E5CF10920A0210920B0210920C02109294
:10E920000D02109206021092070210920802109235
:10E930000902109202021092030210920402109235
:10E9400005028FEE90EE60E00F94F5F180E191EE1C
:10E9500060E00F94C2F18091C00087FFFCCF9091DE
:10E96000C600903608F09F759032B8F09093C600BC
:10E970008091C00086FFFCCF8091C00080648093AE
:10E98000C000A0E2A093C6008091C00086FFFCCF2B
:10E990008091C00080648093C000983409F4D7C18E
:10E9A0009934B8F4923409F459C1933458F490333B
:10E9B00019F1903308F4E3C59F33A1F1903409F0C5
:10E9C000DEC5BDC0953409F470C1963409F0D7C5D1
:10E9D00098C1923509F42BC2933538F49C3409F46C
:10E9E000F5C1913509F0CBC518C2963509F445C279
:10E9F000993509F0C4C567C483E792EE62E00F94CD
:10EA0000F5F110920602109207021092080210927D
:10EA1000090210920A0210920B0210920C0210923C
:10EA20000D0213C18FE792EE62E00F94F5F18FEEC5
:10EA300090EE60E00F94F5F181E291EE60E00F94CA
:10EA4000C2F187EB91EE60E00F94F5F180E391EE77
:10EA500060E00F94C2F184EE90EE60E00F94F5F167
:10EA60008FE391EE60E00F94C2F186E090E061E008
:10EA700070E00F9434F20F94DCF18DE591EE60E0DC
:10EA80000F94C2F189EC91EE60E00F94F5F18EE401
:10EA900091EE60E00F94C2F183EC91EE60E00F9490
:10EAA000F5F18CE691EE60E00F94C2F18EE10F94E7
:10EAB0000DF288E90F940DF281E00F940DF20F949E
:10EAC000DCF18BE791EE60E00F94C2F119E0E0E039
:10EAD000F0E010935700E4918E2F0F940DF20F94F5
:10EAE000DCF18AE891EE60E00F94C2F1E3E0F0E03F
:10EAF00010935700E4918E2F0F940DF20F94DCF1D8
:10EB000089E991EE60E00F94C2F1E2E0F0E0109349
:10EB10005700E4918E2F0F940DF20F94DCF188EAE8
:10EB200091EE60E00F94C2F1E1E0F0E01093570045
:10EB30001491812F0F940DF20F94DCF107CF8BE825
:10EB400092EE62E00F94F5F18BE492EE60E00F94A8
:10EB5000F5F10F94DCF100E010E019C0C8016F2D51
:10EB60000F947FFEFF2031F489E492EE60E00F9471
:10EB7000C2F10BC0F092C6008091C00086FFFCCFAE
:10EB80008091C00080648093C0000F5F1F4FC80158
:10EB900081519F41A0E0B0E0ABBFFC01F790BAE229
:10EBA000FB1621F0E2E000301E07C1F60F94DCF105
:10EBB0000F94DCF187E592EE60E00F94F5F10F948D
:10EBC000DCF1CC24DD2400E010E01EC0C8010F946D
:10EBD00077FEF82E882331F489E492EE60E00F94FA
:10EBE000C2F10BC08093C6008091C00086FFFCCFAD
:10EBF0008091C00080648093C000FE1419F00894D6
:10EC0000C11CD11C0F5F1F4FC80181519F41A0E063
:10EC1000B0E0ABBFFC01E790FAE2EF1621F022E092
:10EC20000030120799F60F94DCF10F94DCF182E6C4
:10EC300092EE60E00F94C2F1C60161E070E00F94C3
:10EC400034F20F94DCF10F94DCF110920202109276
:10EC50000302109204021092050278CE89E992EE26
:10EC600062E00F94F5F1279A2F9A16C02F9880E052
:10EC700090E0E0EDF7E03197F1F7019684369105E9
:10EC8000C1F72F9A80E090E0E0EDF7E03197F1F7DF
:10EC9000019684369105C1F78091C00087FFE6CFC9
:10ECA0008091C00087FFFCCF64C485EA92EE62E0E9
:10ECB0000F94F5F140910202509103026091040219
:10ECC0007091050281E020E10F9491F2809102029F
:10ECD00090910302A0910402B091050280509F4FD1
:10ECE000AF4FBF4F8093020290930302A0930402A0
:10ECF000B093050280509041A040B04008F426CE69
:10ED0000A4CF83EB92EE62E00F94F5F140910602FE
:10ED100050910702609108027091090280E020E1A1
:10ED20000F9491F28091060290910702A09108023F
:10ED3000B091090280509F4FAF4FBF4F80930602A2
:10ED400090930702A0930802B0930902FFCD80ECD4
:10ED500092EE62E00F94F5F183E792EE60E00F949B
:10ED6000F5F18FE792EE60E00F94F5F18BE892EE0B
:10ED700060E00F94F5F189E992EE60E00F94F5F10F
:10ED800085EA92EE60E00F94F5F183EB92EE60E09D
:10ED90000F94F5F180EC92EE60E00F94F5F187ECC2
:10EDA00092EE60E00F94F5F188ED92EE60E00F9442
:10EDB000F5F18FED92EE60E00F94F5F18AEE92EEB0
:10EDC00060E00F94F5F183E093EEBDCD87EC92EE19
:10EDD00062E00F94F5F181E40F947BF282E40F94EA
:10EDE0007BF283E40F947BF284E40F947BF285E45E
:10EDF0000F947BF286E40F947BF287E40F947BF20E
:10EE000088E40F947BF28AE40F947BF28BE40F94F6
:10EE10007BF28CE40F947BF299CD88ED92EE62E068
:10EE20000F94F5F1772473948824992409C48FED05
:10EE300092EE62E00F94F5F140910A0250910B02BC
:10EE400060910C0270910D0282E020E10F9491F22A
:10EE500080910A0290910B02A0910C02B0910D02D8
:10EE600080509F4FAF4FBF4F80930A0290930B0289
:10EE7000A0930C02B0930D0269CD8AEE92EE62E08F
:10EE80000F94F5F184EE90EE60E00F94F5F18FECC5
:10EE900091EE60E00F94F5F1662477244301CC5D98
:10EEA000DE4F19821882C452D140D401C301B695F5
:10EEB000A79597958795CA5DDE4F88839983AA8326
:10EEC000BB83C652D140CC5DDE4FA881B981C4520C
:10EED000D1401196CC5DDE4FB983A883C452D14096
:10EEE000CD0162E070E00F9434F2B0E2B093C6005E
:10EEF0008091C00086FFFCCF8091C0008064809329
:10EF0000C000EDE2E093C6008091C00086FFFCCF18
:10EF10008091C00080648093C000F0E2F093C6004E
:10EF20008091C00086FFFCCF8091C00080648093F8
:10EF3000C000CA5DDE4FE880F9800A811B81C6529D
:10EF4000D140BB27A12F902F8F2D0F940DF2CA5DBA
:10EF5000DE4F8881C652D1400F940DF2B0E2FB2EF5
:10EF6000F092C6008091C00086FFFCCF8091C00067
:10EF700080648093C0000DE30093C6008091C000C0
:10EF800086FFFCCF8091C00080648093C00010E2B7
:10EF90001093C6008091C00086FFFCCF8091C00016
:10EFA00080648093C0008BBEF3012791C65DDE4F65
:10EFB0002883CA52D140A22EBB24CC24DD2408943D
:10EFC000611C711C811C911C8BBEF3018791282E42
:10EFD0003324442455240894611C711C811C911C09
:10EFE0008BBEF3013791C55DDE4F3883CB52D140E4
:10EFF0000894611C711C811C911C8BBEF30147910C
:10F00000C45DDE4F4883CC52D140ADEFEA2EAFEF66
:10F01000FA2EAFEF0A2FAFEF1A2F6E0C7F1C801E57
:10F02000911E142D032DF22CEE24EA0CFB1C0C1D5A
:10F030001D1D0F940DF220E22093C6008091C000A8
:10F0400086FFFCCF8091C00080648093C000C65DC5
:10F05000DE4F8881CA52D1400F940DF230E23093D6
:10F06000C6008091C00086FFFCCF8091C000806404
:10F070008093C000C45DDE4F8881CC52D1400F9494
:10F080000DF240E24093C6008091C00086FFFCCFA5
:10F090008091C00080648093C000C55DDE4F888190
:10F0A000CB52D1400F940DF250E25093C6008091A4
:10F0B000C00086FFFCCF8091C00080648093C000B8
:10F0C0008FEFE8168FEFF80680E0080780E018075A
:10F0D00031F484E092EE60E00F94C2F1DFC0D80119
:10F0E000C7018070907CA070B0708050904CA040A0
:10F0F000B040D1F52FEF3FE340E050E0E222F322B1
:10F1000004231523CA5DDE4FA880B980CA80DB8046
:10F11000C652D140AE0CBF1CC01ED11EAA0CBB1CD7
:10F12000CC1CDD1C8EE092EE60E00F94C2F1BB2798
:10F13000A12F902F8F2D0F940DF28E2D0F940DF285
:10F1400030E23093C6008091C00086FFFCCF8091F2
:10F15000C00080648093C0004EE34093C60080915D
:10F16000C00086FFFCCF87C08EE09EEFA0E0B0E03D
:10F17000E822F9220A231B239CE0E91694E9F90608
:10F1800090E0090790E0190709F088C0C45DDE4FE0
:10F19000A881CC52D140EA2EFF2400E010E0102FCD
:10F1A0000F2DFE2CEE24C55DDE4FB881CB52D14031
:10F1B000EB0EF11C011D111DD601C501817090706F
:10F1C000A070B070DC0199278827E80EF91E0A1F8D
:10F1D0001B1F20EF30E040E050E0A222B322C42207
:10F1E000D52241E1AA0CBB1CCC1CDD1C4A95D1F7F1
:10F1F000EA0CFB1C0C1D1D1D81E090E0A0E0B0E0BE
:10F20000282239224A225B2235E1220C331C441C7D
:10F21000551C3A95D1F7E20CF31C041D151D57013E
:10F220006801AA0CBB1CCC1CDD1C85E192EE60E0E1
:10F230000F94C2F1C801AA27BB270F940DF2BB2778
:10F24000A12F902F8F2D0F940DF28E2D0F940DF274
:10F2500090E29093C6008091C00086FFFCCF809121
:10F26000C00080648093C000AEE3A093C60080918C
:10F27000C00086FFFCCF8091C00080648093C000F6
:10F28000C601AA27BB270F940DF2BB27AD2D9C2DDD
:10F290008B2D0F940DF28A2D0F940DF20F94DCF14B
:10F2A000CC5DDE4FE881F981C452D140F99709F471
:10F2B0004DCBF4E0EF2EF12C012D112D6E0C7F1CA7
:10F2C000801E911EF2CD83E093EE62E00F94F5F183
:10F2D0008AE192EE60E00F94C2F18091C00087FF56
:10F2E000FCCF1091C6001F751093C6008091C0001E
:10F2F00086FFFCCF8091C00080648093C0000F9493
:10F30000DCF1812F81548A3108F036C1163409F4BA
:10F3100095C0173490F4133409F44EC0143430F40B
:10F320001134F1F0123409F01DC130C0143409F465
:10F3300059C0153409F016C16BC01A3409F4C4C0A1
:10F340001B3438F4173409F48FC0183409F00AC19B
:10F35000A1C01B3409F4D2C01C3409F003C1E8C0B9
:10F360008FEF81B90DC082B1809582B980E090E0C5
:10F37000E0EDF7E03197F1F70196883C9105C1F790
:10F380008091C00087FFEFCF12B8EFC08FEF84B934
:10F390000DC085B1809585B980E090E0E0EDF7E0A3
:10F3A0003197F1F70196883C9105C1F78091C00033
:10F3B00087FFEFCF15B8D9C08FEF87B90DC088B1DF
:10F3C000809588B980E090E0E0EDF7E03197F1F7C3
:10F3D0000196883C9105C1F78091C00087FFEFCF6F
:10F3E00018B8C3C08FEF8AB90DC08BB180958BB9A7
:10F3F00080E090E0E0EDF7E03197F1F70196883C8E
:10F400009105C1F78091C00087FFEFCF1BB8ADC059
:10F410008FEF8DB90DC08EB180958EB980E090E0F0
:10F42000E0EDF7E03197F1F70196883C9105C1F7DF
:10F430008091C00087FFEFCF1EB897C08FEF80BBD1
:10F440000DC081B3809581BB80E090E0E0EDF7E0F6
:10F450003197F1F70196883C9105C1F78091C00082
:10F4600087FFEFCF11BA81C08FEF83BB0DC084B38C
:10F47000809584BB80E090E0E0EDF7E03197F1F714
:10F480000196883C9105C1F78091C00087FFEFCFBE
:10F4900014BA6BC08FEF809301010FC080910201FD
:10F4A00080958093020180E090E0E0EDF7E03197F5
:10F4B000F1F70196883C9105C1F78091C00087FF64
:10F4C000EDCF1092020151C08FEF809304010FC065
:10F4D0008091050180958093050180E090E0E0ED4A
:10F4E000F7E03197F1F70196883C9105C1F78091DB
:10F4F000C00087FFEDCF1092050137C08FEF8093DA
:10F5000007010FC08091080180958093080180E079
:10F5100090E0E0EDF7E03197F1F70196883C910536
:10F52000C1F78091C00087FFEDCF109208011DC088
:10F530008FEF80930A010FC080910B01809580931B
:10F540000B0180E090E0E0EDF7E03197F1F70196F4
:10F55000883C9105C1F78091C00087FFEDCF1092E4
:10F560000B0103C085E292EEEEC98091C00087FFD7
:10F57000FCCF8091C600EAC988E392EEE4C98CE131
:10F5800091EEE1C988249924933011F1943028F444
:10F59000913089F09230B8F408C0953061F195301F
:10F5A000F0F0963009F048C043C02B3109F042C951
:10F5B00091E06BE13FC96227C15DDE4F2883CF52E6
:10F5C000D14092E037C9B22FA0E0622793E032C960
:10F5D000822F90E0A82BB92B622794E02BC92E3004
:10F5E00009F039C3622795E0C05DDE4F19821882A9
:10F5F000C053D1401FC9E1E0F0E0EC0FFD1FC05D3A
:10F60000DE4F08811981C053D140E00FF11F2083E4
:10F610000F5F1F4FC05DDE4F19830883C053D14079
:10F6200062270A171B0709F005C9D80196E002C92D
:10F63000261709F010C303C0973009F0FBC87724E0
:10F640009981933109F412C19431C8F4963009F4C8
:10F65000D8C0973050F4923009F406C1933009F4C1
:10F660006DC0913009F059C253C0913109F477C08F
:10F67000923108F0BBC0903109F04FC2F5C098310B
:10F6800009F487C0993150F4953109F4EFC09531F0
:10F6900008F4C6C1963109F040C2C2C19A3109F4DA
:10F6A0006CC09A3108F491C09B3109F45BC09D3164
:10F6B00009F033C29D81903359F48F81882311F46E
:10F6C0009EE11CC0813011F091E018C098E916C08D
:10F6D000892F807591F0903539F4E0E0F0E089E011
:10F6E0008093570094910AC0983539F4E3E0F0E034
:10F6F00089E080935700949101C090E01A821B82A8
:10F700008D818C831D829E831F8227E030E009C299
:10F710001A8288E08B8381E48C8386E58D8382E581
:10F720008E8389E48F8383E5888780E589878FE5E9
:10F730008A8782E38B872BE030E0F3C18A818139AD
:10F7400041F0823941F0803911F48FE005C080E04A
:10F7500003C082E001C08AE01A828B8344C0772410
:10F76000739482C08D81882311F48EE12CC0813086
:10F7700011F081E028C088E926C01A82E1E0F0E0BB
:10F7800089E08093570084918B831C8224E030E0D1
:10F79000C8C18B81803589F48C81883039F4E2E0EE
:10F7A000F0E089E08093570084910DC0E0E0F0E044
:10F7B00089E080935700849106C0E3E0F0E089E09F
:10F7C0008093570084911A82DFCF8D81836C99E0FA
:10F7D000E1E0F0E0082E90935700E89507B600FCB2
:10F7E000FDCF1A821B8223E030E09BC180EC8A832C
:10F7F000CE5CDE4F188219821A821B82C253D1401E
:10F800008EC18A8190E0A0E0B0E0582F44273327D2
:10F8100022278B8190E0A0E0B0E0DC0199278827C7
:10F82000282B392B4A2B5B2B8D8190E0A0E0B0E098
:10F83000282B392B4A2B5B2B8C8190E0A0E0B0E089
:10F84000BA2FA92F982F8827282B392B4A2B5B2BCF
:10F85000220F331F441F551FC05EDE4F288339839C
:10F860004A835B83C052D1401A8259C13A81C95C34
:10F87000DE4F3883C753D140CA5CDE4F1882C6536F
:10F88000D1408B81C82EDD24CA5CDE4F488159816E
:10F89000C653D140C42AD52A933109F082C0CE5C28
:10F8A000DE4F88819981AA81BB81C253D1408050AB
:10F8B000904CA340B04030F583E0CE5CDE4FE88052
:10F8C000F9800A811B81C253D140F70100935B008C
:10F8D00080935700E89507B600FCFDCFCE5CDE4F65
:10F8E000088119812A813B81C253D14000501F4FAA
:10F8F0002F4F3F4FCE5CDE4F088319832A833B8313
:10F90000C253D140C05EDE4F488159816A817B81FC
:10F91000C052D140DE011B9631E08C9111962C91A2
:10F9200011971296C75CDE4F2883C953D140C85C3B
:10F93000DE4F1882C853D14090E0C85CDE4FE881AA
:10F94000F981C853D1408E2B9F2B0C01FA01609393
:10F950005B0030935700E89511244E5F5F4F6F4F67
:10F960007F4F0EEFE02E0FEFF02ECE0CDF1CC114F8
:10F97000D10499F685E0C05EDE4F088119812A81A5
:10F980003B81C052D140F80120935B008093570027
:10F99000E89507B600FCFDCF81E180935700E8951C
:10F9A00035C0C05EDE4F88819981AA81BB81C0527B
:10F9B000D140B695A795979587957C018601ABE0D8
:10F9C000AA2EB12CAC0EBD1E0BC0D5016D915D01F0
:10F9D000C7010F947FFE0894E11CF11C01501040F8
:10F9E0000115110591F7A60160E070E0440F551F65
:10F9F000661F771FC05EDE4FE880F9800A811B8199
:10FA0000C052D1404E0D5F1D601F711F1A82C05E33
:10FA1000DE4F488359836A837B83C052D1407FC0C5
:10FA2000FA80C55CDE4FF882CB53D140C65CDE4F16
:10FA30001882CA53D1408B81C82EDD24C65CDE4FAC
:10FA400008811981CA53D140C02AD12A1A828981DA
:10FA5000BE016D5F7F4F843121F59601C05EDE4FA0
:10FA6000E880F9800A811B81C052D1400BBFF701A9
:10FA700087919691DB018C9311969C936E5F7F4FDB
:10FA8000D801C7010296A11DB11DC05EDE4F88835B
:10FA90009983AA83BB83C052D14022503040F1F6F3
:10FAA00036C0C05EDE4F288139814A815B81C052F9
:10FAB000D1400894C108D108760100E010E0089414
:10FAC000C11CD11C0894E11CF11C011D111DE20E8A
:10FAD000F31E041F151F21BDBB27A52F942F832FB5
:10FAE00082BD2F5F3F4F4F4F5F4FF89A80B5DB01CC
:10FAF0008D93BD012E153F054007510761F7C05E8C
:10FB0000DE4F288339834A835B83C052D1409601FC
:10FB10002D5F3F4FFB01108204C080EC8A8322E0FE
:10FB200030E08BE18093C6008091C00086FFFCCF5F
:10FB30008091C00080648093C000C15DDE4FF88179
:10FB4000CF52D140F093C6008091C00086FFFCCF19
:10FB50008091C00080648093C000432F3093C60022
:10FB60008091C00086FFFCCF8091C00080648093AC
:10FB7000C000922F2093C6008091C00086FFFCCF6A
:10FB80008091C00080648093C0008EE08093C600A6
:10FB90008091C00086FFFCCF8091C000806480937C
:10FBA000C00065E1C15DDE4FE880CF52D1406E25D7
:10FBB00069276427FE01319610C090819093C6009A
:10FBC0008091C00086FFFCCF31968091C000806498
:10FBD0008093C0006927215030402115310569F715
:10FBE0006093C6008091C00086FFFCCF8091C0006A
:10FBF00080648093C00085B1805885B9772081F4F6
:10FC0000C15DDE4F0881CF52D1400F5FC15DDE4F35
:10FC10000883CF52D14090E0A0E0B0E00D941AF4F8
:10FC200027982F9880E090E020ED37E0F901319798
:10FC3000F1F7019684369105C9F700008091C00064
:10FC40008D7F8093C00081E180935700E895EE2777
:10FC5000FF270994FFCF90E00D941AF497FB092E2B
:10FC600007260AD077FD04D02ED006D000201AF443
:10FC7000709561957F4F0895F6F7909581959F4F08
:10FC80000895A1E21A2EAA1BBB1BFD010DC0AA1FDD
:10FC9000BB1FEE1FFF1FA217B307E407F50720F0F5
:10FCA000A21BB30BE40BF50B661F771F881F991F70
:10FCB0001A9469F760957095809590959B01AC01B9
:10FCC000BD01CF010895AA1BBB1B51E107C0AA1FAC
:10FCD000BB1FA617B70710F0A61BB70B881F991FED
:10FCE0005A95A9F780959095BC01CD010895F99991
:10FCF000FECF92BD81BDF89A992780B50895262F31
:10FD0000F999FECF1FBA92BD81BD20BD0FB6F89400
:0EFD1000FA9AF99A0FBE01960895F894FFCF63
:00000001FF
